S011000068616C5F74696D65722E737265635E
S11300000C942A000C943F000C943F000C943F0085
S11300100C943F000C94E1000C943F000C943F00BE
S11300200C943F000C943F000C94F3000C943F009C
S11300300C943F000C943F000C943F000C943F0040
S11300400C943F000C943F000C943F000C943F0030
S11300500C943F0011241FBECFE5D8E0DEBFCDBF16
S113006010E0A0E6B0E0ECE3F2E002C005900D92EF
S1130070A636B107D9F70E9405010C941C010C9413
S11300800000FC01892B09F48CC08081833509F0C0
S113009044C08381811120C0818181110CC08FB73C
S11300A080688FBF89B7816089BF93B78281892BAC
S11300B083BF81E00895813009F075C08FB78068EF
S11300C08FBF89B7826089BF85818CBF93B78281D6
S11300D0892B83BF81E00895813009F066C0818156
S11300E0811106C093B78281892B83BF81E0089573
S11300F0813009F05CC083B7886083BF83B78068B0
S113010083BF85818CBF93B78481892B83BF93B7C9
S11301108281892B83BF81E00895853409F049C029
S1130120838181111FC0818181110CC08FB78068C8
S11301308FBF89B7806489BF95B58281892B85BDBE
S113014081E008958130B9F58FB780688FBF89B792
S1130150806889BF858183BD95B58281892B85BDE2
S113016081E00895813049F58181811106C095B5FA
S11301708281892B85BD81E00895813001F585B5A3
S1130180886085BD85B5806885BD858183BD95B54D
S11301908481892B85BD95B58281892B85BD81E0BC
S11301A008958DEC08958DEC089581E008958DEC0B
S11301B0089581E008958DEC089581E008958DEC13
S11301C008951F920F920FB60F9211248F939F934D
S11301D095B381E0892785BB9F918F910F900FBEC6
S11301E00F901F9018951F920F920FB60F92112423
S11301F08F939F9398B381E0892788BB9F918F91B8
S11302000F900FBE0F901F901895CF93DF9300D0DF
S113021000D000D0CDB7DEB7A09AA89886E0E0E67B
S1130220F0E0DE01119601900D928A95E1F7CE017E
S10F023001960E944100FFCFF894FFCF1C
S109023C5300050110014E
S9030000FC
