:100000000C942A000C943C000C943C000C943C0092
:100010000C943C000C943C000C943C000C943C0070
:100020000C943C000C943C000C943C000C943C0060
:100030000C943E000C943C000C943C000C943C004E
:100040000C943C000C943C000C943C000C943C0040
:100050000C943C0011241FBECFE5D8E0DEBFCDBF1D
:1000600020E0A0E6B0E001C01D92A236B207E1F7A1
:100070000E94BC000C94E6000C9400001F920F92AA
:100080000FB60F9211242F933F934F935F936F936B
:100090007F938F939F93AF93BF93EF93FF93E091E1
:1000A0006000F09161000780F085E02D0995FF91D7
:1000B000EF91BF91AF919F918F917F916F915F91E0
:1000C0004F913F912F910F900FBE0F901F90189559
:1000D000FC01892B09F448C08081813011F46C9AAD
:1000E00003C081110FC06C988081813029F487B3DF
:1000F000806B87BBBE9806C0811104C0BE9ABC98B5
:10010000BD98BF988181813011F46F9A03C081112D
:1001100001C06F988281813011F46D9A03C0811102
:1001200001C06D988381813011F46A9A03C08111F6
:1001300001C06A988481811102C06B9A03C081302A
:1001400009F46B988081813061F49DB18581892BA0
:100150008DB98681813011F4709A03C0811101C07C
:1001600070986E9A81E008958DEC08958FB98EB1E4
:100170008823E9F381E00895CF93DF93CDB7DEB70D
:1001800029970FB6F894DEBF0FBECDBF81E08983FB
:100190001A821B828C838D831E821F82CE01019660
:1001A0000E94680000E010E0C8010E94B6002FE342
:1001B0008DE093E0215080409040E1F700C00000C6
:1001C0000F5F1F4F0930110579F7ECCFF894FFCF7F
:00000001FF
