:100000000C942A000C9434000C9434000C943400AA
:100010000C9434000C9434000C9434000C94340090
:100020000C9434000C9434000C9434000C94340080
:100030000C9434000C9434000C9434000C94340070
:100040000C9434000C9434000C9434000C94340060
:100050000C94340011241FBECFE5D8E0DEBFCDBF25
:100060000E94AE000C942F010C940000893331F0F3
:10007000863321F0833311F0803389F4611106C097
:10008000E82FF0E08181118281E00895613049F428
:10009000E82FF0E081818FEF818381E0089580E097
:1000A000089580E00895893331F0863321F0833359
:1000B00011F0803309F5683008F541110FC0E82FC1
:1000C000F0E0228181E090E002C0880F991F6A95DC
:1000D000E2F780958223828381E00895E82FF0E0A3
:1000E000228181E090E002C0880F991F6A95E2F7B3
:1000F000822B828381E0089580E0089580E0089556
:10010000893331F0863321F0833311F0803389F461
:10011000683088F4E82FF0E0208181E090E002C0B0
:10012000880F991F6A95E2F78223FA01808381E0A4
:10013000089580E0089580E00895893331F0863392
:1001400021F0833311F0803339F4E82FF0E082811D
:100150008FEF828381E0089580E00895CF93DF934D
:1001600000D000D01F92CDB7DEB760E089E30E94D7
:10017000360089E30E949D0061E086E30E9436001C
:1001800019821A821B821C821D82AE014F5F5F4F53
:1001900060E089E30E948000AE014E5F5F4F61E046
:1001A00089E30E948000AE014D5F5F4F62E089E30A
:1001B0000E948000AE014C5F5F4F63E089E30E94C4
:1001C0008000AE014B5F5F4F64E089E30E948000D6
:1001D0008981811106C041E060E086E30E945300FE
:1001E00005C040E060E086E30E9453008A818111EF
:1001F00006C041E061E086E30E94530005C040E094
:1002000061E086E30E9453008B81811106C041E0CA
:1002100062E086E30E94530005C040E062E086E3AE
:100220000E9453008C81811106C041E063E086E3A7
:100230000E94530005C040E063E086E30E94530043
:100240008D81811106C041E064E086E30E94530085
:100250009CCF40E064E086E30E94530096CFF89480
:02026000FFCFCE
:00000001FF
