:100000000C942A000C943C000C943C000C943C0092
:100010000C943C000C943C000C943C000C943C0070
:100020000C943C000C943C000C943C000C948F000D
:100030000C943C000C943C000C943C000C943C0050
:100040000C943C000C943C000C943C000C943C0040
:100050000C943C0011241FBECFE5D8E0DEBFCDBF1D
:1000600020E0A0E6B0E001C01D92A537B207E1F79D
:100070000E944E000C94BE010C9400008BB380953E
:100080008BBB089588B3809588BB089585B3809510
:1000900085BB089582B3809582BB0895CF93DF938B
:1000A000CDB7DEB7E0970FB6F894DEBF0FBECDBF79
:1000B0008FEF8ABB87BB84BB81BB80E00E94DA00E4
:1000C0000EE310E020E04AEF50E060E070E0CE0187
:1000D00001960E940A0102E410E020E044EF51E0A2
:1000E00060E070E0CE010D960E940A0106E410E087
:1000F00020E04EEE57E060E070E0CE0149960E94AD
:100100000A010AE410E020E040E35CEE61E070E008
:10011000CE0185960E940A010E946401FDCF1F92C4
:100120000F920FB60F9211242F938F939F93AF933B
:10013000BF93EF93FF93CF93DF931F92CDB7DEB7BB
:100140001982898120916000821720F5E981F0E011
:10015000EE0FFF1FEF59FF4F80819181892BA1F096
:10016000E981F0E0EE0FFF1FEF59FF4F0190F081A2
:10017000E02D80859185A285B3850197A109B109FC
:1001800080879187A287B38789818F5F89838981DF
:100190008217E0F212BE0F90DF91CF91FF91EF91A5
:1001A000BF91AF919F918F912F910F900FBE0F90A4
:1001B0001F901895E1E6F0E025E730E011921192EA
:1001C000E217F307D9F713BE12BE9FB790689FBF1F
:1001D00099B7916099BF811103C081E083BF0895F1
:1001E000813021F482E083BF81E00895823021F4E0
:1001F00083E083BF81E00895833021F484E083BFEE
:1002000081E00895843021F485E083BF81E0089582
:1002100080E008950F931F93009701F101151105D8
:10022000F9F02230F8F4FC01238312830183448324
:1002300055836683778340875187628773872091D0
:100240006000E22FF0E0EE0FFF1FEF59FF4F9183A8
:1002500080832F5F2093600081E005C080E003C0B1
:1002600080E001C080E01F910F910895009741F157
:10027000A0916000AA2331F12091610030916200C9
:1002800082179307A9F409C0B901419151912F5FD9
:100290003F4F8417950781F402C060E070E0660F5D
:1002A000771FFB01EF59FF4F1182108281E0089503
:1002B000E3E6F0E021E030E02A1730F381E0089532
:1002C00080E0089581E00895FF920F931F93CF93EC
:1002D000DF9380916000882309F448C0C0E0D1E03A
:1002E000F12C0C2F10E0F801EE0FFF1FEF59FF4F1C
:1002F0000190F081E02D309791F180859185A28564
:10030000B385181619061A061B064CF18381811154
:1003100015C00180F281E02D0995000F111FF80131
:10032000EF59FF4F0190F081E02D84819581A681E6
:10033000B78180879187A287B38711C0813071F41C
:100340000180F281E02D0995000F111FF801EF598E
:10035000FF4F808191810E94360101C0DF2DCF5F68
:1003600080916000C81708F4BCCF01C0D1E08D2F88
:10037000DF91CF911F910F91FF900895F894FFCFD7
:00000001FF
