:100000000C942A000C9447000C9447000C94470071
:100010000C9447000C9447000C9447000C94470044
:100020000C9447000C9447000C9447000C94470034
:100030000C9447000C9447000C9447000C94470024
:100040000C9447000C9447000C9447000C94470014
:100050000C94470011241FBECFE5D8E0DEBFCDBF12
:1000600010E0A0E6B0E0E4E6F2E002C005900D92F8
:10007000AA36B107D9F720E0AAE6B0E001C01D9288
:10008000A337B207E1F70E9449000C9430010C94A9
:100090000000CF93DF9300D000D0CDB7DEB7198238
:1000A0001A821B821C82AE014F5F5F4F61E089E3C1
:1000B0000E9487008981682F0E94BF00AE014E5FB9
:1000C0005F4F61E086E30E9487008A81682F0E946B
:1000D000BF00AE014D5F5F4F61E083E30E94870088
:1000E0008B81682F0E94BF00AE014C5F5F4F60E0C4
:1000F00080E30E9487008C81682F0E94BF008B8163
:100100000E941A0169E08B810E94BF00FFCF90ED31
:10011000980F9A3070F54115510569F19091720070
:10012000943058F5A92FB0E0FD01EE0FFF1FE659FE
:10013000FF4F20812933B1F02633A1F0233391F012
:10014000203381F0E82FF0E021812FEF2183AA0FE7
:10015000BB1FA659BF4F8C9311966C93FA019083E5
:1001600081E008959F5F909372000E94870081E074
:10017000089580E0089580E0089580E00895843037
:1001800050F56A3050F590E0FC01EE0FFF1FE65984
:10019000FF4FA081AA2319F1880F991FFC01E6598E
:1001A000FF4F8181813051F4B0E0E62FF0E0E05A5A
:1001B000FF4F808112968C9381E00895811111C0C8
:1001C000B0E0E62FF0E0E05AFF4F80818095129674
:1001D0008C9381E0089580E0089580E0089580E0A8
:1001E000089580E008958430F8F490E0FC01EE0F6B
:1001F000FF1FE659FF4F20812223C1F0880F991F6E
:10020000FC01E659FF4F8181813031F4E22FF0E0AB
:100210008FE3828381E0089581110AC0E22FF0E02C
:1002200080EC828381E0089580E0089580E0089565
:1002300080E00895CF93843080F4C82F0E94F300AB
:10024000EC2FF0E0EE0FFF1FE659FF4F108282E027
:100250008183C093720081E001C080E0CF91089556
:04026000F894FFCF40
:0A0264003F065B4F666D7D077F6F5C
:00000001FF
