S01200004C43445F6D6F64756C652E737265635A
S11300000C942A000C9447000C9447000C9447006D
S11300100C9447000C9447000C9447000C94470040
S11300200C9447000C9447000C9447000C94470030
S11300300C9447000C9447000C9447000C94470020
S11300400C9447000C9447000C9447000C94470010
S11300500C94470011241FBECFE5D8E0DEBFCDBF0E
S113006010E0A0E6B0E0EEE3F6E002C005900D92E9
S1130070A438B107D9F720E0A4E8B0E001C01D928C
S1130080A538B207E1F70E94BC020C941D030C943E
S11300900000FC018481813009F041C0A081B0E0FE
S11300A012966C93A181B0E012963C91129781E074
S11300B090E0AC01038002C0440F551F0A94E2F79C
S11300C0242F2095232312962C93A181B0E012961D
S11300D04C9112979C01028002C0220F331F0A9494
S11300E0E2F7242B12962C9322E02A95F1F700C014
S11300F0A181B0E012962C911297028002C0880F61
S1130100991F0A94E2F78095822312968C9387ECC8
S113011090E00197F1F700C0000081E0089581119B
S113012073C0A081B0E0862F82958F7012968C9355
S1130130A181B0E012963C91129781E090E0AC016D
S1130140038002C0440F551F0A94E2F7242F209520
S1130150232312962C93A181B0E012964C9112970E
S11301609C01028002C0220F331F0A94E2F7242B61
S113017012962C93A2E0AA95F1F700C0A181B0E0F9
S113018012963C911297AC01028002C0440F551F95
S11301900A94E2F7242F2095232312962C93A7EC9C
S11301A0B0E01197F1F700C00000A081B0E06F70DB
S11301B012966C93A181B0E012964C9112979C0117
S11301C0028002C0220F331F0A94E2F7242B1296F6
S11301D02C93B2E0BA95F1F700C0A181B0E0129679
S11301E02C911297028002C0880F991F0A94E2F79B
S11301F08095822312968C9387EC90E00197F1F717
S113020000C0000081E0089580E00895CF93DF935B
S113021020918400243008F0ADC0DC01EC91E93376
S113022039F0E63329F0E33319F0E03309F0A4C0E0
S1130230DC0111962C91293339F0263329F023332C
S113024019F0203309F09AC0DC0112962C91129710
S1130250283008F095C013962C911397283008F095
S113026091C0EC01F0E08FEF8183E981F0E04181FE
S113027081E090E09C010B8002C0220F331F0A949E
S1130280E2F7242B2183E981F0E021810A8002C076
S1130290880F991F0A94E2F7822B8183E881F0E0AA
S11302A012828C81813089F5E981F0E0228181E03C
S11302B090E00A8002C0880F991F0A94E2F78095A3
S11302C0822382838FE99FE00197F1F700C0000049
S11302D068E3CD010E9449006EE0CE010E9449000E
S11302E061E0CE010E944900AFE9BFE01197F1F748
S11302F000C0000066E0CE010E94490080918400A5
S11303008F5F8093840081E040C081113DC0E9810A
S1130310F0E0228181E090E00A8002C0880F991FFA
S11303200A94E2F780958223828363E3CD010E94DD
S1130330490062E3CE010E94490068E2CE010E94B6
S113034049006EE0CE010E94490061E0CE010E94A6
S113035049008FE99FE00197F1F700C0000066E0D3
S1130360CE010E944900809184008F5F80938400B5
S113037081E00BC080E009C080E007C080E005C0D8
S113038080E003C080E001C080E0DF91CF91089558
S1130390FC018481813009F03FC0A081B0E0129655
S11303A06C93A181B0E012964C91129781E090E099
S11303B09C01038002C0220F331F0A94E2F7242B0E
S11303C012962C93A181B0E012964C9112979C0145
S11303D0028002C0220F331F0A94E2F7242B1296E4
S11303E02C9322E02A95F1F700C0A181B0E0129687
S11303F02C911297028002C0880F991F0A94E2F789
S11304008095822312968C9387EC90E00197F1F704
S113041000C0000081E0089581116BC0A081B0E0AC
S1130420862F82958F7012968C93A181B0E01296DC
S11304304C91129781E090E09C01038002C0220F4E
S1130440331F0A94E2F7242B12962C93A181B0E077
S113045012964C9112979C01028002C0220F331F06
S11304600A94E2F7242B12962C9322E02A95F1F7B2
S113047000C0A181B0E012963C911297AC010280B9
S113048002C0440F551F0A94E2F7242F209523231A
S113049012962C93A081B0E06F7012966C93A18198
S11304A0B0E012964C9112979C01028002C0220F78
S11304B0331F0A94E2F7242B12962C9322E02A95F8
S11304C0F1F700C0A181B0E012962C91129702803E
S11304D002C0880F991F0A94E2F78095822312962E
S11304E08C9387EC90E00197F1F700C0000081E065
S11304F0089580E00895EF92FF920F931F93CF9396
S1130500FB01309791F06081662389F08F017C01B3
S1130510C0E0C7010E94C801CF5FF801EC0FF11DD4
S113052060816111F6CF81E003C080E001C081E009
S1130530CF911F910F91FF90EF9008950097A1F034
S1130540611108C0403190F460E8640F0E944900D2
S113055081E00895613061F4403160F460EC640F2F
S11305600E94490081E0089580E0089580E00895A4
S113057080E0089580E00895CF93DF93CDB7DEB790
S1130580AA970FB6F894DEBF0FBECDBF8FE0E0E6AA
S1130590F0E0DE01119601900D928A95E1F7188A38
S11305A08DE0E0E7F0E0DE01519601900D928A952E
S11305B0E1F793E0FE017E96DF01892F1D928A9573
S11305C0E9F789E389A380E38AA322E02BA39CA310
S11305D01DA293E39EA38FA318A681E089A71AA660
S11305E0CE0181960E940601BE016F5F7F4FCE014E
S11305F081960E947B0260ECCE0181960E944900A4
S1130600BE016F5E7F4FCE0181960E947B026CE03B
S1130610CE0181960E944900CE0186960E94060171
S113062045E060E0CE0186960E949E0260E870E09C
S1110630CE0186960E947B02FFCFF894FFCF86
S113063E486F7373616D204D6F68616D6564000062
S113064E4661726F756B204B6173656D000000001F
S107065E3232000030
S9030000FC
