S010000068616C5F756172742E73726563C4
S11300000C942A000C943C000C943C000C943C008E
S11300100C943C000C943C000C943C000C943C006C
S11300200C943C000C943C000C943C000C943C005C
S11300300C943C000C9468000C943C000C943E001E
S11300400C943C000C943C000C943C000C943C003C
S11300500C943C0011241FBECFE5D8E0DEBFCDBF19
S113006020E0A0E6B0E001C01D92A236B207E1F79D
S11300700E9401010C9432010C9400001F920F9213
S11300800FB60F9211242F933F934F935F936F9367
S11300907F938F939F93AF93BF93EF93FF93E091DD
S11300A06000F09161000184F285E02D0995FF91D3
S11300B0EF91BF91AF919F918F917F916F915F91DC
S11300C04F913F912F910F900FBE0F901F90189555
S11300D01F920F920FB60F9211242F933F934F93B9
S11300E05F936F937F938F939F93AF93BF93EF939C
S11300F0FF93E0916000F09161000384F485E02DAA
S11301000995FF91EF91BF91AF919F918F917F914D
S11301106F915F914F913F912F910F900FBE0F9070
S11301201F901895FC01009709F44FC0909361004B
S113013080936000838181110FC08481811105C087
S113014010BC83E389B981E012C0813069F410BC2A
S113015087E689B981E00BC0803441F481E080BD39
S11301608FE989B981E003C08DEC01C08DEC9085E5
S11301709E3019F0906890BD04C092E890BD94E060
S11301809AB99481913009F4599A20B59281922BAD
S1130190906890BD20B59381922B906890BD20B556
S11301A09781922B906890BD2AB19581922B9AB930
S11301B02AB19681922B9AB92AB19181922B9AB93C
S11301C02AB19081922B9AB908958DEC0895E0910B
S11301D06000F09161002081283061F45D9BFECFC6
S11301E020852E3021F42AB19170922B9AB98CB9C2
S11301F081E008958DEC08959BB382E089278BBB41
S11302000895CF93DF93CDB7DEB72D970FB6F8944B
S1130210DEBF0FBECDBF8FB780688FBFD19A88E095
S1130220898380E48E838CEF90E09B878A871A828F
S11302301F821C821D8280E38B8386E08987188657
S1130240CE0101960E94920085E390E00E94E700AF
S11302502FE38DE093E0215080409040E1F700C00F
S10B02600000F2CFF894FFCF77
S9030000FC
