:100000000C942A000C9447000C9447000C94470071
:100010000C9447000C9447000C9447000C94470044
:100020000C9447000C9447000C9447000C94370143
:100030000C9447000C9447000C9447000C94470024
:100040000C9447000C9447000C9447000C94470014
:100050000C94470011241FBECFE5D8E0DEBFCDBF12
:1000600010E0A0E6B0E0E2EDF4E002C005900D92F1
:10007000AA36B107D9F720E0AAE6B0E001C01D9288
:10008000AA37B207E1F70E944F000C9467020C9464
:10009000000080916D008F5F80936D000895CF9375
:1000A000DF93CDB7DEB760970FB6F894DEBF0FBE13
:1000B000CDBFAE014F5F5F4F61E089E30E94CB008F
:1000C000AE014E5F5F4F61E086E30E94CB00AE0160
:1000D0004D5F5F4F61E083E30E94CB00AE014C5F58
:1000E0005F4F61E080E30E94CB0080E00E948201CC
:1000F00009E410E020E042E25BE060E070E0CE0165
:1001000005960E94AD0160916D0089810E940301F6
:1001100060916C008A810E94030160916B008B8169
:100120000E94030160916A008C810E94030180910A
:100130006D008A3050F010926D0080916C008F5FDE
:1001400080936C00863071F406C090916C009630FC
:1001500049F4811107C010926C0080916B008F5F91
:1001600080936B0080916B008A3050F010926B008E
:1001700080916A008F5F80936A00863049F406C0E0
:1001800090916A00963021F4811102C010926A00A9
:100190000E940D02B8CF90ED980F9A3070F541157E
:1001A000510569F190917600943058F5A92FB0E08F
:1001B000FD01EE0FFF1FE259FF4F20812933B1F0FF
:1001C0002633A1F0233391F0203381F0E82FF0E0C3
:1001D00021812FEF2183AA0FBB1FA259BF4F8C9300
:1001E00011966C93FA01908381E008959F5F90933C
:1001F00076000E94CB0081E0089580E0089580E0C1
:10020000089580E00895843050F56A3050F590E00C
:10021000FC01EE0FFF1FE259FF4FA081AA2319F145
:10022000880F991FFC01E259FF4F8181813051F401
:10023000B0E0E62FF0E0E05AFF4F808112968C93F9
:1002400081E00895811111C0B0E0E62FF0E0E05A9E
:10025000FF4F8081809512968C9381E0089580E015
:10026000089580E0089580E0089580E008951F9249
:100270000F920FB60F9211242F938F939F93AF93EA
:10028000BF93EF93FF93CF93DF931F92CDB7DEB76A
:100290001982898120917700821720F5E981F0E0A9
:1002A000EE0FFF1FE858FF4F80819181892BA1F04D
:1002B000E981F0E0EE0FFF1FE858FF4F0190F08159
:1002C000E02D80859185A285B3850197A109B109AB
:1002D00080879187A287B38789818F5F898389818E
:1002E0008217E0F212BE0F90DF91CF91FF91EF9154
:1002F000BF91AF919F918F912F910F900FBE0F9053
:100300001F901895109279001092780013BE12BEBB
:100310009FB790689FBF99B7916099BF811103C043
:1003200081E083BF0895813021F482E083BF81E0C2
:100330000895823021F483E083BF81E00895833003
:1003400021F484E083BF81E00895843021F485E0C6
:1003500083BF81E0089580E008950F931F93009775
:1003600001F101151105F9F02230F8F4FC012383A5
:100370001283018344835583668377834087518743
:100380006287738720917700E22FF0E0EE0FFF1F66
:10039000E858FF4F918380832F5F2093770081E09F
:1003A00005C080E003C080E001C080E01F910F9194
:1003B0000895009771F160917700662361F12091B3
:1003C00078003091790082179307A1F409C0D90110
:1003D000419151912F5F3F4F84179507A9F402C0B7
:1003E000A0E0B0E0AA0FBB1FA858BF4F1D921C92FF
:1003F00081E00895EAE7F0E0615070E0660F771F52
:1004000066587F4F21E030E0E617F70701F781E0FB
:10041000089580E0089581E00895FF920F931F935F
:10042000CF93DF9380917700882309F448C0C0E020
:10043000D1E0F12C0C2F10E0F801EE0FFF1FE8586F
:10044000FF4F0190F081E02D309791F180859185EB
:10045000A285B385181619061A061B064CF183816E
:10046000811115C00180F281E02D0995000F111F47
:10047000F801E858FF4F0190F081E02D84819581CB
:10048000A681B78180879187A287B38711C0813009
:1004900071F40180F281E02D0995000F111FF80120
:1004A000E858FF4F808191810E94D90101C0DF2D62
:1004B000CF5F80917700C81708F4BCCF01C0D1E0AE
:1004C0008D2FDF91CF911F910F91FF900895F89498
:0204D000FFCF5C
:0A04D2003F065B4F666D7D077F6FEC
:00000001FF
